{
  "_format": "hh-sol-artifact-1",
  "contractName": "GoEthBid",
  "sourceName": "contracts/GoEthBid.sol",
  "abi": [
    {
      "inputs": [
        {
          "internalType": "address",
          "name": "_token",
          "type": "address"
        },
        {
          "internalType": "address",
          "name": "_owner",
          "type": "address"
        }
      ],
      "stateMutability": "nonpayable",
      "type": "constructor"
    },
    {
      "inputs": [
        {
          "internalType": "address",
          "name": "owner",
          "type": "address"
        }
      ],
      "name": "OwnableInvalidOwner",
      "type": "error"
    },
    {
      "inputs": [
        {
          "internalType": "address",
          "name": "account",
          "type": "address"
        }
      ],
      "name": "OwnableUnauthorizedAccount",
      "type": "error"
    },
    {
      "anonymous": false,
      "inputs": [
        {
          "indexed": true,
          "internalType": "address",
          "name": "previousOwner",
          "type": "address"
        },
        {
          "indexed": true,
          "internalType": "address",
          "name": "newOwner",
          "type": "address"
        }
      ],
      "name": "OwnershipTransferred",
      "type": "event"
    },
    {
      "inputs": [
        {
          "internalType": "uint256",
          "name": "_requestId",
          "type": "uint256"
        },
        {
          "internalType": "uint256",
          "name": "_bidId",
          "type": "uint256"
        }
      ],
      "name": "acceptBid",
      "outputs": [],
      "stateMutability": "nonpayable",
      "type": "function"
    },
    {
      "inputs": [
        {
          "internalType": "uint256",
          "name": "",
          "type": "uint256"
        },
        {
          "internalType": "uint256",
          "name": "",
          "type": "uint256"
        }
      ],
      "name": "bids",
      "outputs": [
        {
          "internalType": "uint256",
          "name": "bidId",
          "type": "uint256"
        },
        {
          "internalType": "address",
          "name": "driver",
          "type": "address"
        },
        {
          "internalType": "uint256",
          "name": "amount",
          "type": "uint256"
        }
      ],
      "stateMutability": "view",
      "type": "function"
    },
    {
      "inputs": [
        {
          "internalType": "uint256",
          "name": "_requestId",
          "type": "uint256"
        }
      ],
      "name": "completeRide",
      "outputs": [],
      "stateMutability": "nonpayable",
      "type": "function"
    },
    {
      "inputs": [
        {
          "internalType": "string",
          "name": "_location",
          "type": "string"
        },
        {
          "internalType": "string",
          "name": "_destination",
          "type": "string"
        },
        {
          "internalType": "uint256",
          "name": "_startingBid",
          "type": "uint256"
        }
      ],
      "name": "createRideRequest",
      "outputs": [],
      "stateMutability": "nonpayable",
      "type": "function"
    },
    {
      "inputs": [
        {
          "internalType": "uint256",
          "name": "_requestId",
          "type": "uint256"
        }
      ],
      "name": "getBids",
      "outputs": [
        {
          "components": [
            {
              "internalType": "uint256",
              "name": "bidId",
              "type": "uint256"
            },
            {
              "internalType": "address",
              "name": "driver",
              "type": "address"
            },
            {
              "internalType": "uint256",
              "name": "amount",
              "type": "uint256"
            }
          ],
          "internalType": "struct GoEthBid.Bid[]",
          "name": "",
          "type": "tuple[]"
        }
      ],
      "stateMutability": "view",
      "type": "function"
    },
    {
      "inputs": [],
      "name": "owner",
      "outputs": [
        {
          "internalType": "address",
          "name": "",
          "type": "address"
        }
      ],
      "stateMutability": "view",
      "type": "function"
    },
    {
      "inputs": [
        {
          "internalType": "uint256",
          "name": "_requestId",
          "type": "uint256"
        },
        {
          "internalType": "uint256",
          "name": "_bidAmount",
          "type": "uint256"
        }
      ],
      "name": "placeBid",
      "outputs": [],
      "stateMutability": "nonpayable",
      "type": "function"
    },
    {
      "inputs": [],
      "name": "renounceOwnership",
      "outputs": [],
      "stateMutability": "nonpayable",
      "type": "function"
    },
    {
      "inputs": [],
      "name": "rideRequestCount",
      "outputs": [
        {
          "internalType": "uint256",
          "name": "",
          "type": "uint256"
        }
      ],
      "stateMutability": "view",
      "type": "function"
    },
    {
      "inputs": [
        {
          "internalType": "uint256",
          "name": "",
          "type": "uint256"
        }
      ],
      "name": "rideRequests",
      "outputs": [
        {
          "internalType": "uint256",
          "name": "requestId",
          "type": "uint256"
        },
        {
          "internalType": "address",
          "name": "rider",
          "type": "address"
        },
        {
          "internalType": "string",
          "name": "location",
          "type": "string"
        },
        {
          "internalType": "string",
          "name": "destination",
          "type": "string"
        },
        {
          "internalType": "uint256",
          "name": "startingBid",
          "type": "uint256"
        },
        {
          "internalType": "bool",
          "name": "fulfilled",
          "type": "bool"
        },
        {
          "internalType": "uint256",
          "name": "acceptedBid",
          "type": "uint256"
        },
        {
          "internalType": "address",
          "name": "acceptedDriver",
          "type": "address"
        }
      ],
      "stateMutability": "view",
      "type": "function"
    },
    {
      "inputs": [],
      "name": "token",
      "outputs": [
        {
          "internalType": "contract IERC20",
          "name": "",
          "type": "address"
        }
      ],
      "stateMutability": "view",
      "type": "function"
    },
    {
      "inputs": [
        {
          "internalType": "address",
          "name": "newOwner",
          "type": "address"
        }
      ],
      "name": "transferOwnership",
      "outputs": [],
      "stateMutability": "nonpayable",
      "type": "function"
    }
  ],
  "bytecode": "0x60806040523480156200001157600080fd5b5060405162001fcf38038062001fcf83398181016040528101906200003791906200023e565b80600073ffffffffffffffffffffffffffffffffffffffff168173ffffffffffffffffffffffffffffffffffffffff1603620000ad5760006040517f1e4fbdf7000000000000000000000000000000000000000000000000000000008152600401620000a4919062000296565b60405180910390fd5b620000be816200011060201b60201c565b5081600360006101000a81548173ffffffffffffffffffffffffffffffffffffffff021916908373ffffffffffffffffffffffffffffffffffffffff16021790555060006004819055505050620002b3565b60008060009054906101000a900473ffffffffffffffffffffffffffffffffffffffff169050816000806101000a81548173ffffffffffffffffffffffffffffffffffffffff021916908373ffffffffffffffffffffffffffffffffffffffff1602179055508173ffffffffffffffffffffffffffffffffffffffff168173ffffffffffffffffffffffffffffffffffffffff167f8be0079c531659141344cd1fd0a4f28419497f9722a3daafe3b4186f6b6457e060405160405180910390a35050565b600080fd5b600073ffffffffffffffffffffffffffffffffffffffff82169050919050565b60006200020682620001d9565b9050919050565b6200021881620001f9565b81146200022457600080fd5b50565b60008151905062000238816200020d565b92915050565b60008060408385031215620002585762000257620001d4565b5b6000620002688582860162000227565b92505060206200027b8582860162000227565b9150509250929050565b6200029081620001f9565b82525050565b6000602082019050620002ad600083018462000285565b92915050565b611d0c80620002c36000396000f3fe608060405234801561001057600080fd5b50600436106100b45760003560e01c80637b3c4baa116100715780637b3c4baa146101655780638da5cb5b14610197578063bcc601ab146101b5578063c416dd0b146101ec578063f2fde38b14610208578063fc0c546a14610224576100b4565b806302e9d5e4146100b9578063131d9a27146100d5578063225d64231461010557806343a3cdfe1461012357806357c90de51461013f578063715018a61461015b575b600080fd5b6100d360048036038101906100ce9190610f4f565b610242565b005b6100ef60048036038101906100ea9190610f8f565b610493565b6040516100fc91906110fd565b60405180910390f35b61010d61056f565b60405161011a919061112e565b60405180910390f35b61013d6004803603810190610138919061128f565b610575565b005b61015960048036038101906101549190610f4f565b610713565b005b61016361084f565b005b61017f600480360381019061017a9190610f4f565b610863565b60405161018e93929190611329565b60405180910390f35b61019f6108ca565b6040516101ac9190611360565b60405180910390f35b6101cf60048036038101906101ca9190610f8f565b6108f3565b6040516101e3989796959493929190611415565b60405180910390f35b61020660048036038101906102019190610f8f565b610a98565b005b610222600480360381019061021d91906114cd565b610d06565b005b61022c610d8c565b6040516102399190611559565b60405180910390f35b6001600083815260200190815260200160002060010160009054906101000a900473ffffffffffffffffffffffffffffffffffffffff1673ffffffffffffffffffffffffffffffffffffffff163373ffffffffffffffffffffffffffffffffffffffff16146102e6576040517f08c379a00000000000000000000000000000000000000000000000000000000081526004016102dd906115c0565b60405180910390fd5b6001600083815260200190815260200160002060050160009054906101000a900460ff161561034a576040517f08c379a00000000000000000000000000000000000000000000000000000000081526004016103419061162c565b60405180910390fd5b60006002600084815260200190815260200160002082815481106103715761037061164c565b5b9060005260206000209060030201905060008160020154116103c8576040517f08c379a00000000000000000000000000000000000000000000000000000000081526004016103bf906116c7565b60405180910390fd5b806002015460016000858152602001908152602001600020600601819055508060010160009054906101000a900473ffffffffffffffffffffffffffffffffffffffff166001600085815260200190815260200160002060070160006101000a81548173ffffffffffffffffffffffffffffffffffffffff021916908373ffffffffffffffffffffffffffffffffffffffff160217905550600180600085815260200190815260200160002060050160006101000a81548160ff021916908315150217905550505050565b606060026000838152602001908152602001600020805480602002602001604051908101604052809291908181526020016000905b828210156105645783829060005260206000209060030201604051806060016040529081600082015481526020016001820160009054906101000a900473ffffffffffffffffffffffffffffffffffffffff1673ffffffffffffffffffffffffffffffffffffffff1673ffffffffffffffffffffffffffffffffffffffff168152602001600282015481525050815260200190600101906104c8565b505050509050919050565b60045481565b600060045490506040518061010001604052808281526020013373ffffffffffffffffffffffffffffffffffffffff16815260200185815260200184815260200183815260200160001515815260200160008152602001600073ffffffffffffffffffffffffffffffffffffffff16815250600160008381526020019081526020016000206000820151816000015560208201518160010160006101000a81548173ffffffffffffffffffffffffffffffffffffffff021916908373ffffffffffffffffffffffffffffffffffffffff160217905550604082015181600201908161066091906118e9565b50606082015181600301908161067691906118e9565b506080820151816004015560a08201518160050160006101000a81548160ff02191690831515021790555060c0820151816006015560e08201518160070160006101000a81548173ffffffffffffffffffffffffffffffffffffffff021916908373ffffffffffffffffffffffffffffffffffffffff16021790555090505060046000815480929190610708906119ea565b919050555050505050565b8060016000848152602001908152602001600020600401541061076b576040517f08c379a000000000000000000000000000000000000000000000000000000000815260040161076290611aa4565b60405180910390fd5b600260008381526020019081526020016000206040518060600160405280600260008681526020019081526020016000208054905081526020013373ffffffffffffffffffffffffffffffffffffffff1681526020018381525090806001815401808255809150506001900390600052602060002090600302016000909190919091506000820151816000015560208201518160010160006101000a81548173ffffffffffffffffffffffffffffffffffffffff021916908373ffffffffffffffffffffffffffffffffffffffff1602179055506040820151816002015550505050565b610857610db2565b6108616000610e39565b565b6002602052816000526040600020818154811061087f57600080fd5b9060005260206000209060030201600091509150508060000154908060010160009054906101000a900473ffffffffffffffffffffffffffffffffffffffff16908060020154905083565b60008060009054906101000a900473ffffffffffffffffffffffffffffffffffffffff16905090565b60016020528060005260406000206000915090508060000154908060010160009054906101000a900473ffffffffffffffffffffffffffffffffffffffff169080600201805461094290611716565b80601f016020809104026020016040519081016040528092919081815260200182805461096e90611716565b80156109bb5780601f10610990576101008083540402835291602001916109bb565b820191906000526020600020905b81548152906001019060200180831161099e57829003601f168201915b5050505050908060030180546109d090611716565b80601f01602080910402602001604051908101604052809291908181526020018280546109fc90611716565b8015610a495780601f10610a1e57610100808354040283529160200191610a49565b820191906000526020600020905b815481529060010190602001808311610a2c57829003601f168201915b5050505050908060040154908060050160009054906101000a900460ff16908060060154908060070160009054906101000a900473ffffffffffffffffffffffffffffffffffffffff16905088565b6001600082815260200190815260200160002060070160009054906101000a900473ffffffffffffffffffffffffffffffffffffffff1673ffffffffffffffffffffffffffffffffffffffff163373ffffffffffffffffffffffffffffffffffffffff1614610b3c576040517f08c379a0000000000000000000000000000000000000000000000000000000008152600401610b3390611b36565b60405180910390fd5b6001600082815260200190815260200160002060050160009054906101000a900460ff16610b9f576040517f08c379a0000000000000000000000000000000000000000000000000000000008152600401610b9690611bc8565b60405180910390fd5b60006001600083815260200190815260200160002060060154905060008111610bfd576040517f08c379a0000000000000000000000000000000000000000000000000000000008152600401610bf490611c34565b60405180910390fd5b600180600084815260200190815260200160002060050160006101000a81548160ff021916908315150217905550600360009054906101000a900473ffffffffffffffffffffffffffffffffffffffff1673ffffffffffffffffffffffffffffffffffffffff1663a9059cbb6001600085815260200190815260200160002060010160009054906101000a900473ffffffffffffffffffffffffffffffffffffffff16836040518363ffffffff1660e01b8152600401610cbe929190611c54565b6020604051808303816000875af1158015610cdd573d6000803e3d6000fd5b505050506040513d601f19601f82011682018060405250810190610d019190611ca9565b505050565b610d0e610db2565b600073ffffffffffffffffffffffffffffffffffffffff168173ffffffffffffffffffffffffffffffffffffffff1603610d805760006040517f1e4fbdf7000000000000000000000000000000000000000000000000000000008152600401610d779190611360565b60405180910390fd5b610d8981610e39565b50565b600360009054906101000a900473ffffffffffffffffffffffffffffffffffffffff1681565b610dba610efd565b73ffffffffffffffffffffffffffffffffffffffff16610dd86108ca565b73ffffffffffffffffffffffffffffffffffffffff1614610e3757610dfb610efd565b6040517f118cdaa7000000000000000000000000000000000000000000000000000000008152600401610e2e9190611360565b60405180910390fd5b565b60008060009054906101000a900473ffffffffffffffffffffffffffffffffffffffff169050816000806101000a81548173ffffffffffffffffffffffffffffffffffffffff021916908373ffffffffffffffffffffffffffffffffffffffff1602179055508173ffffffffffffffffffffffffffffffffffffffff168173ffffffffffffffffffffffffffffffffffffffff167f8be0079c531659141344cd1fd0a4f28419497f9722a3daafe3b4186f6b6457e060405160405180910390a35050565b600033905090565b6000604051905090565b600080fd5b600080fd5b6000819050919050565b610f2c81610f19565b8114610f3757600080fd5b50565b600081359050610f4981610f23565b92915050565b60008060408385031215610f6657610f65610f0f565b5b6000610f7485828601610f3a565b9250506020610f8585828601610f3a565b9150509250929050565b600060208284031215610fa557610fa4610f0f565b5b6000610fb384828501610f3a565b91505092915050565b600081519050919050565b600082825260208201905092915050565b6000819050602082019050919050565b610ff181610f19565b82525050565b600073ffffffffffffffffffffffffffffffffffffffff82169050919050565b600061102282610ff7565b9050919050565b61103281611017565b82525050565b60608201600082015161104e6000850182610fe8565b5060208201516110616020850182611029565b5060408201516110746040850182610fe8565b50505050565b60006110868383611038565b60608301905092915050565b6000602082019050919050565b60006110aa82610fbc565b6110b48185610fc7565b93506110bf83610fd8565b8060005b838110156110f05781516110d7888261107a565b97506110e283611092565b9250506001810190506110c3565b5085935050505092915050565b60006020820190508181036000830152611117818461109f565b905092915050565b61112881610f19565b82525050565b6000602082019050611143600083018461111f565b92915050565b600080fd5b600080fd5b6000601f19601f8301169050919050565b7f4e487b7100000000000000000000000000000000000000000000000000000000600052604160045260246000fd5b61119c82611153565b810181811067ffffffffffffffff821117156111bb576111ba611164565b5b80604052505050565b60006111ce610f05565b90506111da8282611193565b919050565b600067ffffffffffffffff8211156111fa576111f9611164565b5b61120382611153565b9050602081019050919050565b82818337600083830152505050565b600061123261122d846111df565b6111c4565b90508281526020810184848401111561124e5761124d61114e565b5b611259848285611210565b509392505050565b600082601f83011261127657611275611149565b5b813561128684826020860161121f565b91505092915050565b6000806000606084860312156112a8576112a7610f0f565b5b600084013567ffffffffffffffff8111156112c6576112c5610f14565b5b6112d286828701611261565b935050602084013567ffffffffffffffff8111156112f3576112f2610f14565b5b6112ff86828701611261565b925050604061131086828701610f3a565b9150509250925092565b61132381611017565b82525050565b600060608201905061133e600083018661111f565b61134b602083018561131a565b611358604083018461111f565b949350505050565b6000602082019050611375600083018461131a565b92915050565b600081519050919050565b600082825260208201905092915050565b60005b838110156113b557808201518184015260208101905061139a565b60008484015250505050565b60006113cc8261137b565b6113d68185611386565b93506113e6818560208601611397565b6113ef81611153565b840191505092915050565b60008115159050919050565b61140f816113fa565b82525050565b60006101008201905061142b600083018b61111f565b611438602083018a61131a565b818103604083015261144a81896113c1565b9050818103606083015261145e81886113c1565b905061146d608083018761111f565b61147a60a0830186611406565b61148760c083018561111f565b61149460e083018461131a565b9998505050505050505050565b6114aa81611017565b81146114b557600080fd5b50565b6000813590506114c7816114a1565b92915050565b6000602082840312156114e3576114e2610f0f565b5b60006114f1848285016114b8565b91505092915050565b6000819050919050565b600061151f61151a61151584610ff7565b6114fa565b610ff7565b9050919050565b600061153182611504565b9050919050565b600061154382611526565b9050919050565b61155381611538565b82525050565b600060208201905061156e600083018461154a565b92915050565b7f4f6e6c79207468652072696465722063616e2061636365707420612062696400600082015250565b60006115aa601f83611386565b91506115b582611574565b602082019050919050565b600060208201905081810360008301526115d98161159d565b9050919050565b7f526964652068617320616c7265616479206265656e2066756c66696c6c656400600082015250565b6000611616601f83611386565b9150611621826115e0565b602082019050919050565b6000602082019050818103600083015261164581611609565b9050919050565b7f4e487b7100000000000000000000000000000000000000000000000000000000600052603260045260246000fd5b7f496e76616c696420626964204944000000000000000000000000000000000000600082015250565b60006116b1600e83611386565b91506116bc8261167b565b602082019050919050565b600060208201905081810360008301526116e0816116a4565b9050919050565b7f4e487b7100000000000000000000000000000000000000000000000000000000600052602260045260246000fd5b6000600282049050600182168061172e57607f821691505b602082108103611741576117406116e7565b5b50919050565b60008190508160005260206000209050919050565b60006020601f8301049050919050565b600082821b905092915050565b6000600883026117a97fffffffffffffffffffffffffffffffffffffffffffffffffffffffffffffffff8261176c565b6117b3868361176c565b95508019841693508086168417925050509392505050565b60006117e66117e16117dc84610f19565b6114fa565b610f19565b9050919050565b6000819050919050565b611800836117cb565b61181461180c826117ed565b848454611779565b825550505050565b600090565b61182961181c565b6118348184846117f7565b505050565b5b818110156118585761184d600082611821565b60018101905061183a565b5050565b601f82111561189d5761186e81611747565b6118778461175c565b81016020851015611886578190505b61189a6118928561175c565b830182611839565b50505b505050565b600082821c905092915050565b60006118c0600019846008026118a2565b1980831691505092915050565b60006118d983836118af565b9150826002028217905092915050565b6118f28261137b565b67ffffffffffffffff81111561190b5761190a611164565b5b6119158254611716565b61192082828561185c565b600060209050601f8311600181146119535760008415611941578287015190505b61194b85826118cd565b8655506119b3565b601f19841661196186611747565b60005b8281101561198957848901518255600182019150602085019450602081019050611964565b868310156119a657848901516119a2601f8916826118af565b8355505b6001600288020188555050505b505050505050565b7f4e487b7100000000000000000000000000000000000000000000000000000000600052601160045260246000fd5b60006119f582610f19565b91507fffffffffffffffffffffffffffffffffffffffffffffffffffffffffffffffff8203611a2757611a266119bb565b5b600182019050919050565b7f42696420616d6f756e74206d75737420626520686967686572207468616e207460008201527f6865207374617274696e67206269640000000000000000000000000000000000602082015250565b6000611a8e602f83611386565b9150611a9982611a32565b604082019050919050565b60006020820190508181036000830152611abd81611a81565b9050919050565b7f4f6e6c7920746865206163636570746564206472697665722063616e206d617260008201527f6b20746865207269646520617320636f6d706c65746564000000000000000000602082015250565b6000611b20603783611386565b9150611b2b82611ac4565b604082019050919050565b60006020820190508181036000830152611b4f81611b13565b9050919050565b7f52696465206d757374206265206163636570746564206265666f72652069742060008201527f63616e206265206d61726b656420617320636f6d706c65746564000000000000602082015250565b6000611bb2603a83611386565b9150611bbd82611b56565b604082019050919050565b60006020820190508181036000830152611be181611ba5565b9050919050565b7f4e6f2061636365707465642062696420746f207472616e736665720000000000600082015250565b6000611c1e601b83611386565b9150611c2982611be8565b602082019050919050565b60006020820190508181036000830152611c4d81611c11565b9050919050565b6000604082019050611c69600083018561131a565b611c76602083018461111f565b9392505050565b611c86816113fa565b8114611c9157600080fd5b50565b600081519050611ca381611c7d565b92915050565b600060208284031215611cbf57611cbe610f0f565b5b6000611ccd84828501611c94565b9150509291505056fea2646970667358221220366d1aa06cf69295563b38d422bd873f9b252220d5a6cf43e6fc2ad027b632d164736f6c63430008180033",
  "linkReferences": {},
  "deployedLinkReferences": {}
}