{
  "_format": "hh-sol-artifact-1",
  "contractName": "GoEth",
  "sourceName": "contracts/GoEth.sol",
  "abi": [
    {
      "inputs": [
        {
          "internalType": "address",
          "name": "_token",
          "type": "address"
        },
        {
          "internalType": "address",
          "name": "_owner",
          "type": "address"
        }
      ],
      "stateMutability": "nonpayable",
      "type": "constructor"
    },
    {
      "inputs": [
        {
          "internalType": "address",
          "name": "owner",
          "type": "address"
        }
      ],
      "name": "OwnableInvalidOwner",
      "type": "error"
    },
    {
      "inputs": [
        {
          "internalType": "address",
          "name": "account",
          "type": "address"
        }
      ],
      "name": "OwnableUnauthorizedAccount",
      "type": "error"
    },
    {
      "anonymous": false,
      "inputs": [
        {
          "indexed": true,
          "internalType": "address",
          "name": "previousOwner",
          "type": "address"
        },
        {
          "indexed": true,
          "internalType": "address",
          "name": "newOwner",
          "type": "address"
        }
      ],
      "name": "OwnershipTransferred",
      "type": "event"
    },
    {
      "inputs": [
        {
          "internalType": "uint256",
          "name": "_requestId",
          "type": "uint256"
        },
        {
          "internalType": "uint256",
          "name": "_bidId",
          "type": "uint256"
        }
      ],
      "name": "acceptBid",
      "outputs": [],
      "stateMutability": "nonpayable",
      "type": "function"
    },
    {
      "inputs": [
        {
          "internalType": "uint256",
          "name": "",
          "type": "uint256"
        },
        {
          "internalType": "uint256",
          "name": "",
          "type": "uint256"
        }
      ],
      "name": "bids",
      "outputs": [
        {
          "internalType": "uint256",
          "name": "bidId",
          "type": "uint256"
        },
        {
          "internalType": "address",
          "name": "driver",
          "type": "address"
        },
        {
          "internalType": "uint256",
          "name": "amount",
          "type": "uint256"
        }
      ],
      "stateMutability": "view",
      "type": "function"
    },
    {
      "inputs": [
        {
          "internalType": "uint256",
          "name": "_requestId",
          "type": "uint256"
        }
      ],
      "name": "completeRide",
      "outputs": [],
      "stateMutability": "nonpayable",
      "type": "function"
    },
    {
      "inputs": [
        {
          "internalType": "string",
          "name": "_location",
          "type": "string"
        },
        {
          "internalType": "string",
          "name": "_destination",
          "type": "string"
        },
        {
          "internalType": "uint256",
          "name": "_startingBid",
          "type": "uint256"
        },
        {
          "internalType": "uint256",
          "name": "_amountToApprove",
          "type": "uint256"
        }
      ],
      "name": "createRideRequest",
      "outputs": [],
      "stateMutability": "nonpayable",
      "type": "function"
    },
    {
      "inputs": [
        {
          "internalType": "uint256",
          "name": "_requestId",
          "type": "uint256"
        }
      ],
      "name": "getBids",
      "outputs": [
        {
          "components": [
            {
              "internalType": "uint256",
              "name": "bidId",
              "type": "uint256"
            },
            {
              "internalType": "address",
              "name": "driver",
              "type": "address"
            },
            {
              "internalType": "uint256",
              "name": "amount",
              "type": "uint256"
            }
          ],
          "internalType": "struct GoEth.Bid[]",
          "name": "",
          "type": "tuple[]"
        }
      ],
      "stateMutability": "view",
      "type": "function"
    },
    {
      "inputs": [],
      "name": "owner",
      "outputs": [
        {
          "internalType": "address",
          "name": "",
          "type": "address"
        }
      ],
      "stateMutability": "view",
      "type": "function"
    },
    {
      "inputs": [
        {
          "internalType": "uint256",
          "name": "_requestId",
          "type": "uint256"
        },
        {
          "internalType": "uint256",
          "name": "_bidAmount",
          "type": "uint256"
        }
      ],
      "name": "placeBid",
      "outputs": [],
      "stateMutability": "nonpayable",
      "type": "function"
    },
    {
      "inputs": [],
      "name": "renounceOwnership",
      "outputs": [],
      "stateMutability": "nonpayable",
      "type": "function"
    },
    {
      "inputs": [],
      "name": "rideRequestCount",
      "outputs": [
        {
          "internalType": "uint256",
          "name": "",
          "type": "uint256"
        }
      ],
      "stateMutability": "view",
      "type": "function"
    },
    {
      "inputs": [
        {
          "internalType": "uint256",
          "name": "",
          "type": "uint256"
        }
      ],
      "name": "rideRequests",
      "outputs": [
        {
          "internalType": "uint256",
          "name": "requestId",
          "type": "uint256"
        },
        {
          "internalType": "address",
          "name": "rider",
          "type": "address"
        },
        {
          "internalType": "string",
          "name": "location",
          "type": "string"
        },
        {
          "internalType": "string",
          "name": "destination",
          "type": "string"
        },
        {
          "internalType": "uint256",
          "name": "startingBid",
          "type": "uint256"
        },
        {
          "internalType": "bool",
          "name": "fulfilled",
          "type": "bool"
        },
        {
          "internalType": "uint256",
          "name": "acceptedBid",
          "type": "uint256"
        },
        {
          "internalType": "address",
          "name": "acceptedDriver",
          "type": "address"
        }
      ],
      "stateMutability": "view",
      "type": "function"
    },
    {
      "inputs": [],
      "name": "token",
      "outputs": [
        {
          "internalType": "contract IERC20",
          "name": "",
          "type": "address"
        }
      ],
      "stateMutability": "view",
      "type": "function"
    },
    {
      "inputs": [
        {
          "internalType": "address",
          "name": "newOwner",
          "type": "address"
        }
      ],
      "name": "transferOwnership",
      "outputs": [],
      "stateMutability": "nonpayable",
      "type": "function"
    }
  ],
  "bytecode": "0x60806040523480156200001157600080fd5b5060405162001f5a38038062001f5a83398181016040528101906200003791906200023e565b80600073ffffffffffffffffffffffffffffffffffffffff168173ffffffffffffffffffffffffffffffffffffffff1603620000ad5760006040517f1e4fbdf7000000000000000000000000000000000000000000000000000000008152600401620000a4919062000296565b60405180910390fd5b620000be816200011060201b60201c565b5081600360006101000a81548173ffffffffffffffffffffffffffffffffffffffff021916908373ffffffffffffffffffffffffffffffffffffffff16021790555060006004819055505050620002b3565b60008060009054906101000a900473ffffffffffffffffffffffffffffffffffffffff169050816000806101000a81548173ffffffffffffffffffffffffffffffffffffffff021916908373ffffffffffffffffffffffffffffffffffffffff1602179055508173ffffffffffffffffffffffffffffffffffffffff168173ffffffffffffffffffffffffffffffffffffffff167f8be0079c531659141344cd1fd0a4f28419497f9722a3daafe3b4186f6b6457e060405160405180910390a35050565b600080fd5b600073ffffffffffffffffffffffffffffffffffffffff82169050919050565b60006200020682620001d9565b9050919050565b6200021881620001f9565b81146200022457600080fd5b50565b60008151905062000238816200020d565b92915050565b60008060408385031215620002585762000257620001d4565b5b6000620002688582860162000227565b92505060206200027b8582860162000227565b9150509250929050565b6200029081620001f9565b82525050565b6000602082019050620002ad600083018462000285565b92915050565b611c9780620002c36000396000f3fe608060405234801561001057600080fd5b50600436106100b45760003560e01c80638da5cb5b116100715780638da5cb5b1461017b578063b4be781814610199578063bcc601ab146101b5578063c416dd0b146101ec578063f2fde38b14610208578063fc0c546a14610224576100b4565b806302e9d5e4146100b9578063131d9a27146100d5578063225d64231461010557806357c90de514610123578063715018a61461013f5780637b3c4baa14610149575b600080fd5b6100d360048036038101906100ce9190610fb3565b610242565b005b6100ef60048036038101906100ea9190610ff3565b610570565b6040516100fc9190611161565b60405180910390f35b61010d61064c565b60405161011a9190611192565b60405180910390f35b61013d60048036038101906101389190610fb3565b610652565b005b61014761078e565b005b610163600480360381019061015e9190610fb3565b6107a2565b604051610172939291906111bc565b60405180910390f35b610183610809565b60405161019091906111f3565b60405180910390f35b6101b360048036038101906101ae9190611354565b610832565b005b6101cf60048036038101906101ca9190610ff3565b610a72565b6040516101e398979695949392919061148d565b60405180910390f35b61020660048036038101906102019190610ff3565b610c17565b005b610222600480360381019061021d9190611545565b610d6a565b005b61022c610df0565b60405161023991906115d1565b60405180910390f35b6001600083815260200190815260200160002060010160009054906101000a900473ffffffffffffffffffffffffffffffffffffffff1673ffffffffffffffffffffffffffffffffffffffff163373ffffffffffffffffffffffffffffffffffffffff16146102e6576040517f08c379a00000000000000000000000000000000000000000000000000000000081526004016102dd90611638565b60405180910390fd5b6001600083815260200190815260200160002060050160009054906101000a900460ff161561034a576040517f08c379a0000000000000000000000000000000000000000000000000000000008152600401610341906116a4565b60405180910390fd5b6000600260008481526020019081526020016000208281548110610371576103706116c4565b5b9060005260206000209060030201905060008160020154116103c8576040517f08c379a00000000000000000000000000000000000000000000000000000000081526004016103bf9061173f565b60405180910390fd5b806002015460016000858152602001908152602001600020600601819055508060010160009054906101000a900473ffffffffffffffffffffffffffffffffffffffff166001600085815260200190815260200160002060070160006101000a81548173ffffffffffffffffffffffffffffffffffffffff021916908373ffffffffffffffffffffffffffffffffffffffff160217905550600180600085815260200190815260200160002060050160006101000a81548160ff021916908315150217905550600360009054906101000a900473ffffffffffffffffffffffffffffffffffffffff1673ffffffffffffffffffffffffffffffffffffffff166323b872dd6001600086815260200190815260200160002060010160009054906101000a900473ffffffffffffffffffffffffffffffffffffffff163084600201546040518463ffffffff1660e01b81526004016105279392919061175f565b6020604051808303816000875af1158015610546573d6000803e3d6000fd5b505050506040513d601f19601f8201168201806040525081019061056a91906117c2565b50505050565b606060026000838152602001908152602001600020805480602002602001604051908101604052809291908181526020016000905b828210156106415783829060005260206000209060030201604051806060016040529081600082015481526020016001820160009054906101000a900473ffffffffffffffffffffffffffffffffffffffff1673ffffffffffffffffffffffffffffffffffffffff1673ffffffffffffffffffffffffffffffffffffffff168152602001600282015481525050815260200190600101906105a5565b505050509050919050565b60045481565b806001600084815260200190815260200160002060040154106106aa576040517f08c379a00000000000000000000000000000000000000000000000000000000081526004016106a190611861565b60405180910390fd5b600260008381526020019081526020016000206040518060600160405280600260008681526020019081526020016000208054905081526020013373ffffffffffffffffffffffffffffffffffffffff1681526020018381525090806001815401808255809150506001900390600052602060002090600302016000909190919091506000820151816000015560208201518160010160006101000a81548173ffffffffffffffffffffffffffffffffffffffff021916908373ffffffffffffffffffffffffffffffffffffffff1602179055506040820151816002015550505050565b610796610e16565b6107a06000610e9d565b565b600260205281600052604060002081815481106107be57600080fd5b9060005260206000209060030201600091509150508060000154908060010160009054906101000a900473ffffffffffffffffffffffffffffffffffffffff16908060020154905083565b60008060009054906101000a900473ffffffffffffffffffffffffffffffffffffffff16905090565b600360009054906101000a900473ffffffffffffffffffffffffffffffffffffffff1673ffffffffffffffffffffffffffffffffffffffff1663095ea7b330836040518363ffffffff1660e01b815260040161088f929190611881565b6020604051808303816000875af11580156108ae573d6000803e3d6000fd5b505050506040513d601f19601f820116820180604052508101906108d291906117c2565b50600060045490506040518061010001604052808281526020013373ffffffffffffffffffffffffffffffffffffffff16815260200186815260200185815260200184815260200160001515815260200160008152602001600073ffffffffffffffffffffffffffffffffffffffff16815250600160008381526020019081526020016000206000820151816000015560208201518160010160006101000a81548173ffffffffffffffffffffffffffffffffffffffff021916908373ffffffffffffffffffffffffffffffffffffffff16021790555060408201518160020190816109be9190611aac565b5060608201518160030190816109d49190611aac565b506080820151816004015560a08201518160050160006101000a81548160ff02191690831515021790555060c0820151816006015560e08201518160070160006101000a81548173ffffffffffffffffffffffffffffffffffffffff021916908373ffffffffffffffffffffffffffffffffffffffff16021790555090505060046000815480929190610a6690611bad565b91905055505050505050565b60016020528060005260406000206000915090508060000154908060010160009054906101000a900473ffffffffffffffffffffffffffffffffffffffff1690806002018054610ac1906118d9565b80601f0160208091040260200160405190810160405280929190818152602001828054610aed906118d9565b8015610b3a5780601f10610b0f57610100808354040283529160200191610b3a565b820191906000526020600020905b815481529060010190602001808311610b1d57829003601f168201915b505050505090806003018054610b4f906118d9565b80601f0160208091040260200160405190810160405280929190818152602001828054610b7b906118d9565b8015610bc85780601f10610b9d57610100808354040283529160200191610bc8565b820191906000526020600020905b815481529060010190602001808311610bab57829003601f168201915b5050505050908060040154908060050160009054906101000a900460ff16908060060154908060070160009054906101000a900473ffffffffffffffffffffffffffffffffffffffff16905088565b6001600082815260200190815260200160002060050160009054906101000a900460ff16610c7a576040517f08c379a0000000000000000000000000000000000000000000000000000000008152600401610c7190611c41565b60405180910390fd5b600360009054906101000a900473ffffffffffffffffffffffffffffffffffffffff1673ffffffffffffffffffffffffffffffffffffffff1663a9059cbb6001600084815260200190815260200160002060070160009054906101000a900473ffffffffffffffffffffffffffffffffffffffff1660016000858152602001908152602001600020600601546040518363ffffffff1660e01b8152600401610d23929190611881565b6020604051808303816000875af1158015610d42573d6000803e3d6000fd5b505050506040513d601f19601f82011682018060405250810190610d6691906117c2565b5050565b610d72610e16565b600073ffffffffffffffffffffffffffffffffffffffff168173ffffffffffffffffffffffffffffffffffffffff1603610de45760006040517f1e4fbdf7000000000000000000000000000000000000000000000000000000008152600401610ddb91906111f3565b60405180910390fd5b610ded81610e9d565b50565b600360009054906101000a900473ffffffffffffffffffffffffffffffffffffffff1681565b610e1e610f61565b73ffffffffffffffffffffffffffffffffffffffff16610e3c610809565b73ffffffffffffffffffffffffffffffffffffffff1614610e9b57610e5f610f61565b6040517f118cdaa7000000000000000000000000000000000000000000000000000000008152600401610e9291906111f3565b60405180910390fd5b565b60008060009054906101000a900473ffffffffffffffffffffffffffffffffffffffff169050816000806101000a81548173ffffffffffffffffffffffffffffffffffffffff021916908373ffffffffffffffffffffffffffffffffffffffff1602179055508173ffffffffffffffffffffffffffffffffffffffff168173ffffffffffffffffffffffffffffffffffffffff167f8be0079c531659141344cd1fd0a4f28419497f9722a3daafe3b4186f6b6457e060405160405180910390a35050565b600033905090565b6000604051905090565b600080fd5b600080fd5b6000819050919050565b610f9081610f7d565b8114610f9b57600080fd5b50565b600081359050610fad81610f87565b92915050565b60008060408385031215610fca57610fc9610f73565b5b6000610fd885828601610f9e565b9250506020610fe985828601610f9e565b9150509250929050565b60006020828403121561100957611008610f73565b5b600061101784828501610f9e565b91505092915050565b600081519050919050565b600082825260208201905092915050565b6000819050602082019050919050565b61105581610f7d565b82525050565b600073ffffffffffffffffffffffffffffffffffffffff82169050919050565b60006110868261105b565b9050919050565b6110968161107b565b82525050565b6060820160008201516110b2600085018261104c565b5060208201516110c5602085018261108d565b5060408201516110d8604085018261104c565b50505050565b60006110ea838361109c565b60608301905092915050565b6000602082019050919050565b600061110e82611020565b611118818561102b565b93506111238361103c565b8060005b8381101561115457815161113b88826110de565b9750611146836110f6565b925050600181019050611127565b5085935050505092915050565b6000602082019050818103600083015261117b8184611103565b905092915050565b61118c81610f7d565b82525050565b60006020820190506111a76000830184611183565b92915050565b6111b68161107b565b82525050565b60006060820190506111d16000830186611183565b6111de60208301856111ad565b6111eb6040830184611183565b949350505050565b600060208201905061120860008301846111ad565b92915050565b600080fd5b600080fd5b6000601f19601f8301169050919050565b7f4e487b7100000000000000000000000000000000000000000000000000000000600052604160045260246000fd5b61126182611218565b810181811067ffffffffffffffff821117156112805761127f611229565b5b80604052505050565b6000611293610f69565b905061129f8282611258565b919050565b600067ffffffffffffffff8211156112bf576112be611229565b5b6112c882611218565b9050602081019050919050565b82818337600083830152505050565b60006112f76112f2846112a4565b611289565b90508281526020810184848401111561131357611312611213565b5b61131e8482856112d5565b509392505050565b600082601f83011261133b5761133a61120e565b5b813561134b8482602086016112e4565b91505092915050565b6000806000806080858703121561136e5761136d610f73565b5b600085013567ffffffffffffffff81111561138c5761138b610f78565b5b61139887828801611326565b945050602085013567ffffffffffffffff8111156113b9576113b8610f78565b5b6113c587828801611326565b93505060406113d687828801610f9e565b92505060606113e787828801610f9e565b91505092959194509250565b600081519050919050565b600082825260208201905092915050565b60005b8381101561142d578082015181840152602081019050611412565b60008484015250505050565b6000611444826113f3565b61144e81856113fe565b935061145e81856020860161140f565b61146781611218565b840191505092915050565b60008115159050919050565b61148781611472565b82525050565b6000610100820190506114a3600083018b611183565b6114b0602083018a6111ad565b81810360408301526114c28189611439565b905081810360608301526114d68188611439565b90506114e56080830187611183565b6114f260a083018661147e565b6114ff60c0830185611183565b61150c60e08301846111ad565b9998505050505050505050565b6115228161107b565b811461152d57600080fd5b50565b60008135905061153f81611519565b92915050565b60006020828403121561155b5761155a610f73565b5b600061156984828501611530565b91505092915050565b6000819050919050565b600061159761159261158d8461105b565b611572565b61105b565b9050919050565b60006115a98261157c565b9050919050565b60006115bb8261159e565b9050919050565b6115cb816115b0565b82525050565b60006020820190506115e660008301846115c2565b92915050565b7f4f6e6c79207468652072696465722063616e2061636365707420612062696400600082015250565b6000611622601f836113fe565b915061162d826115ec565b602082019050919050565b6000602082019050818103600083015261165181611615565b9050919050565b7f526964652068617320616c7265616479206265656e2066756c66696c6c656400600082015250565b600061168e601f836113fe565b915061169982611658565b602082019050919050565b600060208201905081810360008301526116bd81611681565b9050919050565b7f4e487b7100000000000000000000000000000000000000000000000000000000600052603260045260246000fd5b7f496e76616c696420626964204944000000000000000000000000000000000000600082015250565b6000611729600e836113fe565b9150611734826116f3565b602082019050919050565b600060208201905081810360008301526117588161171c565b9050919050565b600060608201905061177460008301866111ad565b61178160208301856111ad565b61178e6040830184611183565b949350505050565b61179f81611472565b81146117aa57600080fd5b50565b6000815190506117bc81611796565b92915050565b6000602082840312156117d8576117d7610f73565b5b60006117e6848285016117ad565b91505092915050565b7f42696420616d6f756e74206d75737420626520686967686572207468616e207460008201527f6865207374617274696e67206269640000000000000000000000000000000000602082015250565b600061184b602f836113fe565b9150611856826117ef565b604082019050919050565b6000602082019050818103600083015261187a8161183e565b9050919050565b600060408201905061189660008301856111ad565b6118a36020830184611183565b9392505050565b7f4e487b7100000000000000000000000000000000000000000000000000000000600052602260045260246000fd5b600060028204905060018216806118f157607f821691505b602082108103611904576119036118aa565b5b50919050565b60008190508160005260206000209050919050565b60006020601f8301049050919050565b600082821b905092915050565b60006008830261196c7fffffffffffffffffffffffffffffffffffffffffffffffffffffffffffffffff8261192f565b611976868361192f565b95508019841693508086168417925050509392505050565b60006119a96119a461199f84610f7d565b611572565b610f7d565b9050919050565b6000819050919050565b6119c38361198e565b6119d76119cf826119b0565b84845461193c565b825550505050565b600090565b6119ec6119df565b6119f78184846119ba565b505050565b5b81811015611a1b57611a106000826119e4565b6001810190506119fd565b5050565b601f821115611a6057611a318161190a565b611a3a8461191f565b81016020851015611a49578190505b611a5d611a558561191f565b8301826119fc565b50505b505050565b600082821c905092915050565b6000611a8360001984600802611a65565b1980831691505092915050565b6000611a9c8383611a72565b9150826002028217905092915050565b611ab5826113f3565b67ffffffffffffffff811115611ace57611acd611229565b5b611ad882546118d9565b611ae3828285611a1f565b600060209050601f831160018114611b165760008415611b04578287015190505b611b0e8582611a90565b865550611b76565b601f198416611b248661190a565b60005b82811015611b4c57848901518255600182019150602085019450602081019050611b27565b86831015611b695784890151611b65601f891682611a72565b8355505b6001600288020188555050505b505050505050565b7f4e487b7100000000000000000000000000000000000000000000000000000000600052601160045260246000fd5b6000611bb882610f7d565b91507fffffffffffffffffffffffffffffffffffffffffffffffffffffffffffffffff8203611bea57611be9611b7e565b5b600182019050919050565b7f5269646520686173206e6f74206265656e2066756c66696c6c65642079657400600082015250565b6000611c2b601f836113fe565b9150611c3682611bf5565b602082019050919050565b60006020820190508181036000830152611c5a81611c1e565b905091905056fea2646970667358221220b06265278de3bff76269b471882f1aedc519d16bae78319283c50d59f06c7c1764736f6c63430008180033",
  "linkReferences": {},
  "deployedLinkReferences": {}
}